{
  "_format": "hh-sol-artifact-1",
  "contractName": "StudentInformationManagement",
  "sourceName": "contracts/StudentInformationManagement.sol",
  "abi": [
    {
      "anonymous": false,
      "inputs": [
        {
          "indexed": false,
          "internalType": "uint256",
          "name": "rollNumber",
          "type": "uint256"
        },
        {
          "indexed": false,
          "internalType": "uint256",
          "name": "newCgpa",
          "type": "uint256"
        }
      ],
      "name": "CGPAUpdated",
      "type": "event"
    },
    {
      "anonymous": false,
      "inputs": [
        {
          "indexed": false,
          "internalType": "uint256",
          "name": "rollNumber",
          "type": "uint256"
        },
        {
          "indexed": false,
          "internalType": "string[]",
          "name": "newCourses",
          "type": "string[]"
        }
      ],
      "name": "CoursesRegistered",
      "type": "event"
    },
    {
      "anonymous": false,
      "inputs": [
        {
          "indexed": false,
          "internalType": "uint256",
          "name": "rollNumber",
          "type": "uint256"
        },
        {
          "indexed": false,
          "internalType": "string",
          "name": "firstName",
          "type": "string"
        },
        {
          "indexed": false,
          "internalType": "string",
          "name": "lastName",
          "type": "string"
        }
      ],
      "name": "StudentAdded",
      "type": "event"
    },
    {
      "inputs": [
        {
          "internalType": "string",
          "name": "_firstName",
          "type": "string"
        },
        {
          "internalType": "string",
          "name": "_lastName",
          "type": "string"
        },
        {
          "internalType": "uint256",
          "name": "_rollNumber",
          "type": "uint256"
        },
        {
          "internalType": "uint256",
          "name": "_cgpa",
          "type": "uint256"
        },
        {
          "internalType": "string[]",
          "name": "_courses",
          "type": "string[]"
        }
      ],
      "name": "addStudent",
      "outputs": [],
      "stateMutability": "nonpayable",
      "type": "function"
    },
    {
      "inputs": [],
      "name": "getAllStudentRollNumbers",
      "outputs": [
        {
          "internalType": "uint256[]",
          "name": "",
          "type": "uint256[]"
        }
      ],
      "stateMutability": "view",
      "type": "function"
    },
    {
      "inputs": [
        {
          "internalType": "uint256",
          "name": "_rollNumber",
          "type": "uint256"
        }
      ],
      "name": "getStudent",
      "outputs": [
        {
          "internalType": "string",
          "name": "firstName",
          "type": "string"
        },
        {
          "internalType": "string",
          "name": "lastName",
          "type": "string"
        },
        {
          "internalType": "uint256",
          "name": "rollNumber",
          "type": "uint256"
        },
        {
          "internalType": "uint256",
          "name": "cgpa",
          "type": "uint256"
        },
        {
          "internalType": "string[]",
          "name": "courses",
          "type": "string[]"
        }
      ],
      "stateMutability": "view",
      "type": "function"
    },
    {
      "inputs": [],
      "name": "getTotalStudents",
      "outputs": [
        {
          "internalType": "uint256",
          "name": "",
          "type": "uint256"
        }
      ],
      "stateMutability": "view",
      "type": "function"
    },
    {
      "inputs": [
        {
          "internalType": "uint256",
          "name": "_rollNumber",
          "type": "uint256"
        },
        {
          "internalType": "string[]",
          "name": "_newCourses",
          "type": "string[]"
        }
      ],
      "name": "registerCourses",
      "outputs": [],
      "stateMutability": "nonpayable",
      "type": "function"
    },
    {
      "inputs": [
        {
          "internalType": "uint256",
          "name": "",
          "type": "uint256"
        }
      ],
      "name": "studentRollNumbers",
      "outputs": [
        {
          "internalType": "uint256",
          "name": "",
          "type": "uint256"
        }
      ],
      "stateMutability": "view",
      "type": "function"
    },
    {
      "inputs": [
        {
          "internalType": "uint256",
          "name": "",
          "type": "uint256"
        }
      ],
      "name": "students",
      "outputs": [
        {
          "internalType": "string",
          "name": "firstName",
          "type": "string"
        },
        {
          "internalType": "string",
          "name": "lastName",
          "type": "string"
        },
        {
          "internalType": "uint256",
          "name": "rollNumber",
          "type": "uint256"
        },
        {
          "internalType": "uint256",
          "name": "cgpa",
          "type": "uint256"
        }
      ],
      "stateMutability": "view",
      "type": "function"
    },
    {
      "inputs": [
        {
          "internalType": "uint256",
          "name": "_rollNumber",
          "type": "uint256"
        },
        {
          "internalType": "uint256",
          "name": "_newCgpa",
          "type": "uint256"
        }
      ],
      "name": "updateCGPA",
      "outputs": [],
      "stateMutability": "nonpayable",
      "type": "function"
    }
  ],
  "bytecode": "0x608060405234801561001057600080fd5b50611616806100206000396000f3fe608060405234801561001057600080fd5b50600436106100885760003560e01c8063565a2d091161005b578063565a2d091461012a578063642f91631461014657806386fb41d61461017a578063db744f2b1461019857610088565b806306ead22e1461008d57806328bcb51a146100c057806345fe55ce146100de57806355e3ae811461010e575b600080fd5b6100a760048036038101906100a29190610a23565b6101b4565b6040516100b79493929190610aef565b60405180910390f35b6100c86102f4565b6040516100d59190610b42565b60405180910390f35b6100f860048036038101906100f39190610a23565b610301565b6040516101059190610b42565b60405180910390f35b61012860048036038101906101239190610b5d565b610325565b005b610144600480360381019061013f9190610db8565b6103d4565b005b610160600480360381019061015b9190610a23565b61052f565b604051610171959493929190610f93565b60405180910390f35b610182610796565b60405161018f91906110b9565b60405180910390f35b6101b260048036038101906101ad91906110db565b6107ee565b005b60006020528060005260406000206000915090508060000180546101d790611166565b80601f016020809104026020016040519081016040528092919081815260200182805461020390611166565b80156102505780601f1061022557610100808354040283529160200191610250565b820191906000526020600020905b81548152906001019060200180831161023357829003601f168201915b50505050509080600101805461026590611166565b80601f016020809104026020016040519081016040528092919081815260200182805461029190611166565b80156102de5780601f106102b3576101008083540402835291602001916102de565b820191906000526020600020905b8154815290600101906020018083116102c157829003601f168201915b5050505050908060020154908060030154905084565b6000600180549050905090565b6001818154811061031157600080fd5b906000526020600020016000915090505481565b6000806000848152602001908152602001600020600201540361037d576040517f08c379a0000000000000000000000000000000000000000000000000000000008152600401610374906111e3565b60405180910390fd5b80600080848152602001908152602001600020600301819055507f18dd84df3f87eb5c9062cd4a3632ad4a6e2e4e61503f845cb230c823f05b23c982826040516103c8929190611203565b60405180910390a15050565b82600080858152602001908152602001600020600201540361042b576040517f08c379a00000000000000000000000000000000000000000000000000000000081526004016104229061129e565b60405180910390fd5b6040518060a00160405280868152602001858152602001848152602001838152602001828152506000808581526020019081526020016000206000820151816000019081610479919061146a565b50602082015181600101908161048f919061146a565b50604082015181600201556060820151816003015560808201518160040190805190602001906104c09291906108ff565b5090505060018390806001815401808255809150506001900390600052602060002001600090919091909150557f8f2389bb456b93c3e9fe508739c041611b37c490e217f5aa157162a700ec4df78386866040516105209392919061153c565b60405180910390a15050505050565b606080600080606060008060008881526020019081526020016000206040518060a001604052908160008201805461056690611166565b80601f016020809104026020016040519081016040528092919081815260200182805461059290611166565b80156105df5780601f106105b4576101008083540402835291602001916105df565b820191906000526020600020905b8154815290600101906020018083116105c257829003601f168201915b505050505081526020016001820180546105f890611166565b80601f016020809104026020016040519081016040528092919081815260200182805461062490611166565b80156106715780601f1061064657610100808354040283529160200191610671565b820191906000526020600020905b81548152906001019060200180831161065457829003601f168201915b50505050508152602001600282015481526020016003820154815260200160048201805480602002602001604051908101604052809291908181526020016000905b8282101561075f5783829060005260206000200180546106d290611166565b80601f01602080910402602001604051908101604052809291908181526020018280546106fe90611166565b801561074b5780601f106107205761010080835404028352916020019161074b565b820191906000526020600020905b81548152906001019060200180831161072e57829003601f168201915b5050505050815260200190600101906106b3565b5050505081525050905080600001518160200151826040015183606001518460800151955095509550955095505091939590929450565b606060018054806020026020016040519081016040528092919081815260200182805480156107e457602002820191906000526020600020905b8154815260200190600101908083116107d0575b5050505050905090565b60008060008481526020019081526020016000206002015403610846576040517f08c379a000000000000000000000000000000000000000000000000000000000815260040161083d906111e3565b60405180910390fd5b60005b81518110156108c15760008084815260200190815260200160002060040182828151811061087a57610879611581565b5b60200260200101519080600181540180825580915050600190039060005260206000200160009091909190915090816108b3919061146a565b508080600101915050610849565b507f8f016764a5c8a6fcb34eac2082095d30e83eb5e2039ce5b1a6041ae78f0391da82826040516108f39291906115b0565b60405180910390a15050565b828054828255906000526020600020908101928215610947579160200282015b82811115610946578251829081610936919061146a565b509160200191906001019061091f565b5b5090506109549190610958565b5090565b5b80821115610978576000818161096f919061097c565b50600101610959565b5090565b50805461098890611166565b6000825580601f1061099a57506109b9565b601f0160209004906000526020600020908101906109b891906109bc565b5b50565b5b808211156109d55760008160009055506001016109bd565b5090565b6000604051905090565b600080fd5b600080fd5b6000819050919050565b610a00816109ed565b8114610a0b57600080fd5b50565b600081359050610a1d816109f7565b92915050565b600060208284031215610a3957610a386109e3565b5b6000610a4784828501610a0e565b91505092915050565b600081519050919050565b600082825260208201905092915050565b60005b83811015610a8a578082015181840152602081019050610a6f565b60008484015250505050565b6000601f19601f8301169050919050565b6000610ab282610a50565b610abc8185610a5b565b9350610acc818560208601610a6c565b610ad581610a96565b840191505092915050565b610ae9816109ed565b82525050565b60006080820190508181036000830152610b098187610aa7565b90508181036020830152610b1d8186610aa7565b9050610b2c6040830185610ae0565b610b396060830184610ae0565b95945050505050565b6000602082019050610b576000830184610ae0565b92915050565b60008060408385031215610b7457610b736109e3565b5b6000610b8285828601610a0e565b9250506020610b9385828601610a0e565b9150509250929050565b600080fd5b600080fd5b7f4e487b7100000000000000000000000000000000000000000000000000000000600052604160045260246000fd5b610bdf82610a96565b810181811067ffffffffffffffff82111715610bfe57610bfd610ba7565b5b80604052505050565b6000610c116109d9565b9050610c1d8282610bd6565b919050565b600067ffffffffffffffff821115610c3d57610c3c610ba7565b5b610c4682610a96565b9050602081019050919050565b82818337600083830152505050565b6000610c75610c7084610c22565b610c07565b905082815260208101848484011115610c9157610c90610ba2565b5b610c9c848285610c53565b509392505050565b600082601f830112610cb957610cb8610b9d565b5b8135610cc9848260208601610c62565b91505092915050565b600067ffffffffffffffff821115610ced57610cec610ba7565b5b602082029050602081019050919050565b600080fd5b6000610d16610d1184610cd2565b610c07565b90508083825260208201905060208402830185811115610d3957610d38610cfe565b5b835b81811015610d8057803567ffffffffffffffff811115610d5e57610d5d610b9d565b5b808601610d6b8982610ca4565b85526020850194505050602081019050610d3b565b5050509392505050565b600082601f830112610d9f57610d9e610b9d565b5b8135610daf848260208601610d03565b91505092915050565b600080600080600060a08688031215610dd457610dd36109e3565b5b600086013567ffffffffffffffff811115610df257610df16109e8565b5b610dfe88828901610ca4565b955050602086013567ffffffffffffffff811115610e1f57610e1e6109e8565b5b610e2b88828901610ca4565b9450506040610e3c88828901610a0e565b9350506060610e4d88828901610a0e565b925050608086013567ffffffffffffffff811115610e6e57610e6d6109e8565b5b610e7a88828901610d8a565b9150509295509295909350565b600081519050919050565b600082825260208201905092915050565b6000819050602082019050919050565b600082825260208201905092915050565b6000610ecf82610a50565b610ed98185610eb3565b9350610ee9818560208601610a6c565b610ef281610a96565b840191505092915050565b6000610f098383610ec4565b905092915050565b6000602082019050919050565b6000610f2982610e87565b610f338185610e92565b935083602082028501610f4585610ea3565b8060005b85811015610f815784840389528151610f628582610efd565b9450610f6d83610f11565b925060208a01995050600181019050610f49565b50829750879550505050505092915050565b600060a0820190508181036000830152610fad8188610aa7565b90508181036020830152610fc18187610aa7565b9050610fd06040830186610ae0565b610fdd6060830185610ae0565b8181036080830152610fef8184610f1e565b90509695505050505050565b600081519050919050565b600082825260208201905092915050565b6000819050602082019050919050565b611030816109ed565b82525050565b60006110428383611027565b60208301905092915050565b6000602082019050919050565b600061106682610ffb565b6110708185611006565b935061107b83611017565b8060005b838110156110ac5781516110938882611036565b975061109e8361104e565b92505060018101905061107f565b5085935050505092915050565b600060208201905081810360008301526110d3818461105b565b905092915050565b600080604083850312156110f2576110f16109e3565b5b600061110085828601610a0e565b925050602083013567ffffffffffffffff811115611121576111206109e8565b5b61112d85828601610d8a565b9150509250929050565b7f4e487b7100000000000000000000000000000000000000000000000000000000600052602260045260246000fd5b6000600282049050600182168061117e57607f821691505b60208210810361119157611190611137565b5b50919050565b7f53747564656e7420646f6573206e6f7420657869737400000000000000000000600082015250565b60006111cd601683610a5b565b91506111d882611197565b602082019050919050565b600060208201905081810360008301526111fc816111c0565b9050919050565b60006040820190506112186000830185610ae0565b6112256020830184610ae0565b9392505050565b7f53747564656e742077697468207468697320726f6c6c206e756d62657220616c60008201527f7265616479206578697374730000000000000000000000000000000000000000602082015250565b6000611288602c83610a5b565b91506112938261122c565b604082019050919050565b600060208201905081810360008301526112b78161127b565b9050919050565b60008190508160005260206000209050919050565b60006020601f8301049050919050565b600082821b905092915050565b6000600883026113207fffffffffffffffffffffffffffffffffffffffffffffffffffffffffffffffff826112e3565b61132a86836112e3565b95508019841693508086168417925050509392505050565b6000819050919050565b600061136761136261135d846109ed565b611342565b6109ed565b9050919050565b6000819050919050565b6113818361134c565b61139561138d8261136e565b8484546112f0565b825550505050565b600090565b6113aa61139d565b6113b5818484611378565b505050565b5b818110156113d9576113ce6000826113a2565b6001810190506113bb565b5050565b601f82111561141e576113ef816112be565b6113f8846112d3565b81016020851015611407578190505b61141b611413856112d3565b8301826113ba565b50505b505050565b600082821c905092915050565b600061144160001984600802611423565b1980831691505092915050565b600061145a8383611430565b9150826002028217905092915050565b61147382610a50565b67ffffffffffffffff81111561148c5761148b610ba7565b5b6114968254611166565b6114a18282856113dd565b600060209050601f8311600181146114d457600084156114c2578287015190505b6114cc858261144e565b865550611534565b601f1984166114e2866112be565b60005b8281101561150a578489015182556001820191506020850194506020810190506114e5565b868310156115275784890151611523601f891682611430565b8355505b6001600288020188555050505b505050505050565b60006060820190506115516000830186610ae0565b81810360208301526115638185610aa7565b905081810360408301526115778184610aa7565b9050949350505050565b7f4e487b7100000000000000000000000000000000000000000000000000000000600052603260045260246000fd5b60006040820190506115c56000830185610ae0565b81810360208301526115d78184610f1e565b9050939250505056fea2646970667358221220ca49d4f89de0ce47e6d017ab2b79242eec3070a02b0a822b3b5d7fa45181851064736f6c63430008180033",
  "linkReferences": {},
  "deployedLinkReferences": {}
}