{
  "contracts/StudentInformationManagement.sol": {
    "StudentInformationManagement": {
      "abi": [
        {
          "anonymous": false,
          "inputs": [
            {
              "indexed": false,
              "internalType": "uint256",
              "name": "rollNumber",
              "type": "uint256"
            },
            {
              "indexed": false,
              "internalType": "uint256",
              "name": "newCgpa",
              "type": "uint256"
            }
          ],
          "name": "CGPAUpdated",
          "type": "event"
        },
        {
          "anonymous": false,
          "inputs": [
            {
              "indexed": false,
              "internalType": "uint256",
              "name": "rollNumber",
              "type": "uint256"
            },
            {
              "indexed": false,
              "internalType": "string[]",
              "name": "newCourses",
              "type": "string[]"
            }
          ],
          "name": "CoursesRegistered",
          "type": "event"
        },
        {
          "anonymous": false,
          "inputs": [
            {
              "indexed": false,
              "internalType": "uint256",
              "name": "rollNumber",
              "type": "uint256"
            },
            {
              "indexed": false,
              "internalType": "string",
              "name": "firstName",
              "type": "string"
            },
            {
              "indexed": false,
              "internalType": "string",
              "name": "lastName",
              "type": "string"
            }
          ],
          "name": "StudentAdded",
          "type": "event"
        },
        {
          "inputs": [
            {
              "internalType": "string",
              "name": "_firstName",
              "type": "string"
            },
            {
              "internalType": "string",
              "name": "_lastName",
              "type": "string"
            },
            {
              "internalType": "uint256",
              "name": "_rollNumber",
              "type": "uint256"
            },
            {
              "internalType": "uint256",
              "name": "_cgpa",
              "type": "uint256"
            },
            {
              "internalType": "string[]",
              "name": "_courses",
              "type": "string[]"
            }
          ],
          "name": "addStudent",
          "outputs": [],
          "stateMutability": "nonpayable",
          "type": "function"
        },
        {
          "inputs": [],
          "name": "getAllStudentRollNumbers",
          "outputs": [
            {
              "internalType": "uint256[]",
              "name": "",
              "type": "uint256[]"
            }
          ],
          "stateMutability": "view",
          "type": "function"
        },
        {
          "inputs": [
            {
              "internalType": "uint256",
              "name": "_rollNumber",
              "type": "uint256"
            }
          ],
          "name": "getStudent",
          "outputs": [
            {
              "internalType": "string",
              "name": "firstName",
              "type": "string"
            },
            {
              "internalType": "string",
              "name": "lastName",
              "type": "string"
            },
            {
              "internalType": "uint256",
              "name": "rollNumber",
              "type": "uint256"
            },
            {
              "internalType": "uint256",
              "name": "cgpa",
              "type": "uint256"
            },
            {
              "internalType": "string[]",
              "name": "courses",
              "type": "string[]"
            }
          ],
          "stateMutability": "view",
          "type": "function"
        },
        {
          "inputs": [],
          "name": "getTotalStudents",
          "outputs": [
            {
              "internalType": "uint256",
              "name": "",
              "type": "uint256"
            }
          ],
          "stateMutability": "view",
          "type": "function"
        },
        {
          "inputs": [
            {
              "internalType": "uint256",
              "name": "_rollNumber",
              "type": "uint256"
            },
            {
              "internalType": "string[]",
              "name": "_newCourses",
              "type": "string[]"
            }
          ],
          "name": "registerCourses",
          "outputs": [],
          "stateMutability": "nonpayable",
          "type": "function"
        },
        {
          "inputs": [
            {
              "internalType": "uint256",
              "name": "",
              "type": "uint256"
            }
          ],
          "name": "studentRollNumbers",
          "outputs": [
            {
              "internalType": "uint256",
              "name": "",
              "type": "uint256"
            }
          ],
          "stateMutability": "view",
          "type": "function"
        },
        {
          "inputs": [
            {
              "internalType": "uint256",
              "name": "",
              "type": "uint256"
            }
          ],
          "name": "students",
          "outputs": [
            {
              "internalType": "string",
              "name": "firstName",
              "type": "string"
            },
            {
              "internalType": "string",
              "name": "lastName",
              "type": "string"
            },
            {
              "internalType": "uint256",
              "name": "rollNumber",
              "type": "uint256"
            },
            {
              "internalType": "uint256",
              "name": "cgpa",
              "type": "uint256"
            }
          ],
          "stateMutability": "view",
          "type": "function"
        },
        {
          "inputs": [
            {
              "internalType": "uint256",
              "name": "_rollNumber",
              "type": "uint256"
            },
            {
              "internalType": "uint256",
              "name": "_newCgpa",
              "type": "uint256"
            }
          ],
          "name": "updateCGPA",
          "outputs": [],
          "stateMutability": "nonpayable",
          "type": "function"
        }
      ],
      "evm": {
        "bytecode": {
          "linkReferences": {},
          "object": "608060405234801561001057600080fd5b50611616806100206000396000f3fe608060405234801561001057600080fd5b50600436106100885760003560e01c8063565a2d091161005b578063565a2d091461012a578063642f91631461014657806386fb41d61461017a578063db744f2b1461019857610088565b806306ead22e1461008d57806328bcb51a146100c057806345fe55ce146100de57806355e3ae811461010e575b600080fd5b6100a760048036038101906100a29190610a23565b6101b4565b6040516100b79493929190610aef565b60405180910390f35b6100c86102f4565b6040516100d59190610b42565b60405180910390f35b6100f860048036038101906100f39190610a23565b610301565b6040516101059190610b42565b60405180910390f35b61012860048036038101906101239190610b5d565b610325565b005b610144600480360381019061013f9190610db8565b6103d4565b005b610160600480360381019061015b9190610a23565b61052f565b604051610171959493929190610f93565b60405180910390f35b610182610796565b60405161018f91906110b9565b60405180910390f35b6101b260048036038101906101ad91906110db565b6107ee565b005b60006020528060005260406000206000915090508060000180546101d790611166565b80601f016020809104026020016040519081016040528092919081815260200182805461020390611166565b80156102505780601f1061022557610100808354040283529160200191610250565b820191906000526020600020905b81548152906001019060200180831161023357829003601f168201915b50505050509080600101805461026590611166565b80601f016020809104026020016040519081016040528092919081815260200182805461029190611166565b80156102de5780601f106102b3576101008083540402835291602001916102de565b820191906000526020600020905b8154815290600101906020018083116102c157829003601f168201915b5050505050908060020154908060030154905084565b6000600180549050905090565b6001818154811061031157600080fd5b906000526020600020016000915090505481565b6000806000848152602001908152602001600020600201540361037d576040517f08c379a0000000000000000000000000000000000000000000000000000000008152600401610374906111e3565b60405180910390fd5b80600080848152602001908152602001600020600301819055507f18dd84df3f87eb5c9062cd4a3632ad4a6e2e4e61503f845cb230c823f05b23c982826040516103c8929190611203565b60405180910390a15050565b82600080858152602001908152602001600020600201540361042b576040517f08c379a00000000000000000000000000000000000000000000000000000000081526004016104229061129e565b60405180910390fd5b6040518060a00160405280868152602001858152602001848152602001838152602001828152506000808581526020019081526020016000206000820151816000019081610479919061146a565b50602082015181600101908161048f919061146a565b50604082015181600201556060820151816003015560808201518160040190805190602001906104c09291906108ff565b5090505060018390806001815401808255809150506001900390600052602060002001600090919091909150557f8f2389bb456b93c3e9fe508739c041611b37c490e217f5aa157162a700ec4df78386866040516105209392919061153c565b60405180910390a15050505050565b606080600080606060008060008881526020019081526020016000206040518060a001604052908160008201805461056690611166565b80601f016020809104026020016040519081016040528092919081815260200182805461059290611166565b80156105df5780601f106105b4576101008083540402835291602001916105df565b820191906000526020600020905b8154815290600101906020018083116105c257829003601f168201915b505050505081526020016001820180546105f890611166565b80601f016020809104026020016040519081016040528092919081815260200182805461062490611166565b80156106715780601f1061064657610100808354040283529160200191610671565b820191906000526020600020905b81548152906001019060200180831161065457829003601f168201915b50505050508152602001600282015481526020016003820154815260200160048201805480602002602001604051908101604052809291908181526020016000905b8282101561075f5783829060005260206000200180546106d290611166565b80601f01602080910402602001604051908101604052809291908181526020018280546106fe90611166565b801561074b5780601f106107205761010080835404028352916020019161074b565b820191906000526020600020905b81548152906001019060200180831161072e57829003601f168201915b5050505050815260200190600101906106b3565b5050505081525050905080600001518160200151826040015183606001518460800151955095509550955095505091939590929450565b606060018054806020026020016040519081016040528092919081815260200182805480156107e457602002820191906000526020600020905b8154815260200190600101908083116107d0575b5050505050905090565b60008060008481526020019081526020016000206002015403610846576040517f08c379a000000000000000000000000000000000000000000000000000000000815260040161083d906111e3565b60405180910390fd5b60005b81518110156108c15760008084815260200190815260200160002060040182828151811061087a57610879611581565b5b60200260200101519080600181540180825580915050600190039060005260206000200160009091909190915090816108b3919061146a565b508080600101915050610849565b507f8f016764a5c8a6fcb34eac2082095d30e83eb5e2039ce5b1a6041ae78f0391da82826040516108f39291906115b0565b60405180910390a15050565b828054828255906000526020600020908101928215610947579160200282015b82811115610946578251829081610936919061146a565b509160200191906001019061091f565b5b5090506109549190610958565b5090565b5b80821115610978576000818161096f919061097c565b50600101610959565b5090565b50805461098890611166565b6000825580601f1061099a57506109b9565b601f0160209004906000526020600020908101906109b891906109bc565b5b50565b5b808211156109d55760008160009055506001016109bd565b5090565b6000604051905090565b600080fd5b600080fd5b6000819050919050565b610a00816109ed565b8114610a0b57600080fd5b50565b600081359050610a1d816109f7565b92915050565b600060208284031215610a3957610a386109e3565b5b6000610a4784828501610a0e565b91505092915050565b600081519050919050565b600082825260208201905092915050565b60005b83811015610a8a578082015181840152602081019050610a6f565b60008484015250505050565b6000601f19601f8301169050919050565b6000610ab282610a50565b610abc8185610a5b565b9350610acc818560208601610a6c565b610ad581610a96565b840191505092915050565b610ae9816109ed565b82525050565b60006080820190508181036000830152610b098187610aa7565b90508181036020830152610b1d8186610aa7565b9050610b2c6040830185610ae0565b610b396060830184610ae0565b95945050505050565b6000602082019050610b576000830184610ae0565b92915050565b60008060408385031215610b7457610b736109e3565b5b6000610b8285828601610a0e565b9250506020610b9385828601610a0e565b9150509250929050565b600080fd5b600080fd5b7f4e487b7100000000000000000000000000000000000000000000000000000000600052604160045260246000fd5b610bdf82610a96565b810181811067ffffffffffffffff82111715610bfe57610bfd610ba7565b5b80604052505050565b6000610c116109d9565b9050610c1d8282610bd6565b919050565b600067ffffffffffffffff821115610c3d57610c3c610ba7565b5b610c4682610a96565b9050602081019050919050565b82818337600083830152505050565b6000610c75610c7084610c22565b610c07565b905082815260208101848484011115610c9157610c90610ba2565b5b610c9c848285610c53565b509392505050565b600082601f830112610cb957610cb8610b9d565b5b8135610cc9848260208601610c62565b91505092915050565b600067ffffffffffffffff821115610ced57610cec610ba7565b5b602082029050602081019050919050565b600080fd5b6000610d16610d1184610cd2565b610c07565b90508083825260208201905060208402830185811115610d3957610d38610cfe565b5b835b81811015610d8057803567ffffffffffffffff811115610d5e57610d5d610b9d565b5b808601610d6b8982610ca4565b85526020850194505050602081019050610d3b565b5050509392505050565b600082601f830112610d9f57610d9e610b9d565b5b8135610daf848260208601610d03565b91505092915050565b600080600080600060a08688031215610dd457610dd36109e3565b5b600086013567ffffffffffffffff811115610df257610df16109e8565b5b610dfe88828901610ca4565b955050602086013567ffffffffffffffff811115610e1f57610e1e6109e8565b5b610e2b88828901610ca4565b9450506040610e3c88828901610a0e565b9350506060610e4d88828901610a0e565b925050608086013567ffffffffffffffff811115610e6e57610e6d6109e8565b5b610e7a88828901610d8a565b9150509295509295909350565b600081519050919050565b600082825260208201905092915050565b6000819050602082019050919050565b600082825260208201905092915050565b6000610ecf82610a50565b610ed98185610eb3565b9350610ee9818560208601610a6c565b610ef281610a96565b840191505092915050565b6000610f098383610ec4565b905092915050565b6000602082019050919050565b6000610f2982610e87565b610f338185610e92565b935083602082028501610f4585610ea3565b8060005b85811015610f815784840389528151610f628582610efd565b9450610f6d83610f11565b925060208a01995050600181019050610f49565b50829750879550505050505092915050565b600060a0820190508181036000830152610fad8188610aa7565b90508181036020830152610fc18187610aa7565b9050610fd06040830186610ae0565b610fdd6060830185610ae0565b8181036080830152610fef8184610f1e565b90509695505050505050565b600081519050919050565b600082825260208201905092915050565b6000819050602082019050919050565b611030816109ed565b82525050565b60006110428383611027565b60208301905092915050565b6000602082019050919050565b600061106682610ffb565b6110708185611006565b935061107b83611017565b8060005b838110156110ac5781516110938882611036565b975061109e8361104e565b92505060018101905061107f565b5085935050505092915050565b600060208201905081810360008301526110d3818461105b565b905092915050565b600080604083850312156110f2576110f16109e3565b5b600061110085828601610a0e565b925050602083013567ffffffffffffffff811115611121576111206109e8565b5b61112d85828601610d8a565b9150509250929050565b7f4e487b7100000000000000000000000000000000000000000000000000000000600052602260045260246000fd5b6000600282049050600182168061117e57607f821691505b60208210810361119157611190611137565b5b50919050565b7f53747564656e7420646f6573206e6f7420657869737400000000000000000000600082015250565b60006111cd601683610a5b565b91506111d882611197565b602082019050919050565b600060208201905081810360008301526111fc816111c0565b9050919050565b60006040820190506112186000830185610ae0565b6112256020830184610ae0565b9392505050565b7f53747564656e742077697468207468697320726f6c6c206e756d62657220616c60008201527f7265616479206578697374730000000000000000000000000000000000000000602082015250565b6000611288602c83610a5b565b91506112938261122c565b604082019050919050565b600060208201905081810360008301526112b78161127b565b9050919050565b60008190508160005260206000209050919050565b60006020601f8301049050919050565b600082821b905092915050565b6000600883026113207fffffffffffffffffffffffffffffffffffffffffffffffffffffffffffffffff826112e3565b61132a86836112e3565b95508019841693508086168417925050509392505050565b6000819050919050565b600061136761136261135d846109ed565b611342565b6109ed565b9050919050565b6000819050919050565b6113818361134c565b61139561138d8261136e565b8484546112f0565b825550505050565b600090565b6113aa61139d565b6113b5818484611378565b505050565b5b818110156113d9576113ce6000826113a2565b6001810190506113bb565b5050565b601f82111561141e576113ef816112be565b6113f8846112d3565b81016020851015611407578190505b61141b611413856112d3565b8301826113ba565b50505b505050565b600082821c905092915050565b600061144160001984600802611423565b1980831691505092915050565b600061145a8383611430565b9150826002028217905092915050565b61147382610a50565b67ffffffffffffffff81111561148c5761148b610ba7565b5b6114968254611166565b6114a18282856113dd565b600060209050601f8311600181146114d457600084156114c2578287015190505b6114cc858261144e565b865550611534565b601f1984166114e2866112be565b60005b8281101561150a578489015182556001820191506020850194506020810190506114e5565b868310156115275784890151611523601f891682611430565b8355505b6001600288020188555050505b505050505050565b60006060820190506115516000830186610ae0565b81810360208301526115638185610aa7565b905081810360408301526115778184610aa7565b9050949350505050565b7f4e487b7100000000000000000000000000000000000000000000000000000000600052603260045260246000fd5b60006040820190506115c56000830185610ae0565b81810360208301526115d78184610f1e565b9050939250505056fea2646970667358221220ca49d4f89de0ce47e6d017ab2b79242eec3070a02b0a822b3b5d7fa45181851064736f6c63430008180033",
          "opcodes": "PUSH1 0x80 PUSH1 0x40 MSTORE CALLVALUE DUP1 ISZERO PUSH2 0x10 JUMPI PUSH1 0x0 DUP1 REVERT JUMPDEST POP PUSH2 0x1616 DUP1 PUSH2 0x20 PUSH1 0x0 CODECOPY PUSH1 0x0 RETURN INVALID PUSH1 0x80 PUSH1 0x40 MSTORE CALLVALUE DUP1 ISZERO PUSH2 0x10 JUMPI PUSH1 0x0 DUP1 REVERT JUMPDEST POP PUSH1 0x4 CALLDATASIZE LT PUSH2 0x88 JUMPI PUSH1 0x0 CALLDATALOAD PUSH1 0xE0 SHR DUP1 PUSH4 0x565A2D09 GT PUSH2 0x5B JUMPI DUP1 PUSH4 0x565A2D09 EQ PUSH2 0x12A JUMPI DUP1 PUSH4 0x642F9163 EQ PUSH2 0x146 JUMPI DUP1 PUSH4 0x86FB41D6 EQ PUSH2 0x17A JUMPI DUP1 PUSH4 0xDB744F2B EQ PUSH2 0x198 JUMPI PUSH2 0x88 JUMP JUMPDEST DUP1 PUSH4 0x6EAD22E EQ PUSH2 0x8D JUMPI DUP1 PUSH4 0x28BCB51A EQ PUSH2 0xC0 JUMPI DUP1 PUSH4 0x45FE55CE EQ PUSH2 0xDE JUMPI DUP1 PUSH4 0x55E3AE81 EQ PUSH2 0x10E JUMPI JUMPDEST PUSH1 0x0 DUP1 REVERT JUMPDEST PUSH2 0xA7 PUSH1 0x4 DUP1 CALLDATASIZE SUB DUP2 ADD SWAP1 PUSH2 0xA2 SWAP2 SWAP1 PUSH2 0xA23 JUMP JUMPDEST PUSH2 0x1B4 JUMP JUMPDEST PUSH1 0x40 MLOAD PUSH2 0xB7 SWAP5 SWAP4 SWAP3 SWAP2 SWAP1 PUSH2 0xAEF JUMP JUMPDEST PUSH1 0x40 MLOAD DUP1 SWAP2 SUB SWAP1 RETURN JUMPDEST PUSH2 0xC8 PUSH2 0x2F4 JUMP JUMPDEST PUSH1 0x40 MLOAD PUSH2 0xD5 SWAP2 SWAP1 PUSH2 0xB42 JUMP JUMPDEST PUSH1 0x40 MLOAD DUP1 SWAP2 SUB SWAP1 RETURN JUMPDEST PUSH2 0xF8 PUSH1 0x4 DUP1 CALLDATASIZE SUB DUP2 ADD SWAP1 PUSH2 0xF3 SWAP2 SWAP1 PUSH2 0xA23 JUMP JUMPDEST PUSH2 0x301 JUMP JUMPDEST PUSH1 0x40 MLOAD PUSH2 0x105 SWAP2 SWAP1 PUSH2 0xB42 JUMP JUMPDEST PUSH1 0x40 MLOAD DUP1 SWAP2 SUB SWAP1 RETURN JUMPDEST PUSH2 0x128 PUSH1 0x4 DUP1 CALLDATASIZE SUB DUP2 ADD SWAP1 PUSH2 0x123 SWAP2 SWAP1 PUSH2 0xB5D JUMP JUMPDEST PUSH2 0x325 JUMP JUMPDEST STOP JUMPDEST PUSH2 0x144 PUSH1 0x4 DUP1 CALLDATASIZE SUB DUP2 ADD SWAP1 PUSH2 0x13F SWAP2 SWAP1 PUSH2 0xDB8 JUMP JUMPDEST PUSH2 0x3D4 JUMP JUMPDEST STOP JUMPDEST PUSH2 0x160 PUSH1 0x4 DUP1 CALLDATASIZE SUB DUP2 ADD SWAP1 PUSH2 0x15B SWAP2 SWAP1 PUSH2 0xA23 JUMP JUMPDEST PUSH2 0x52F JUMP JUMPDEST PUSH1 0x40 MLOAD PUSH2 0x171 SWAP6 SWAP5 SWAP4 SWAP3 SWAP2 SWAP1 PUSH2 0xF93 JUMP JUMPDEST PUSH1 0x40 MLOAD DUP1 SWAP2 SUB SWAP1 RETURN JUMPDEST PUSH2 0x182 PUSH2 0x796 JUMP JUMPDEST PUSH1 0x40 MLOAD PUSH2 0x18F SWAP2 SWAP1 PUSH2 0x10B9 JUMP JUMPDEST PUSH1 0x40 MLOAD DUP1 SWAP2 SUB SWAP1 RETURN JUMPDEST PUSH2 0x1B2 PUSH1 0x4 DUP1 CALLDATASIZE SUB DUP2 ADD SWAP1 PUSH2 0x1AD SWAP2 SWAP1 PUSH2 0x10DB JUMP JUMPDEST PUSH2 0x7EE JUMP JUMPDEST STOP JUMPDEST PUSH1 0x0 PUSH1 0x20 MSTORE DUP1 PUSH1 0x0 MSTORE PUSH1 0x40 PUSH1 0x0 KECCAK256 PUSH1 0x0 SWAP2 POP SWAP1 POP DUP1 PUSH1 0x0 ADD DUP1 SLOAD PUSH2 0x1D7 SWAP1 PUSH2 0x1166 JUMP JUMPDEST DUP1 PUSH1 0x1F ADD PUSH1 0x20 DUP1 SWAP2 DIV MUL PUSH1 0x20 ADD PUSH1 0x40 MLOAD SWAP1 DUP2 ADD PUSH1 0x40 MSTORE DUP1 SWAP3 SWAP2 SWAP1 DUP2 DUP2 MSTORE PUSH1 0x20 ADD DUP3 DUP1 SLOAD PUSH2 0x203 SWAP1 PUSH2 0x1166 JUMP JUMPDEST DUP1 ISZERO PUSH2 0x250 JUMPI DUP1 PUSH1 0x1F LT PUSH2 0x225 JUMPI PUSH2 0x100 DUP1 DUP4 SLOAD DIV MUL DUP4 MSTORE SWAP2 PUSH1 0x20 ADD SWAP2 PUSH2 0x250 JUMP JUMPDEST DUP3 ADD SWAP2 SWAP1 PUSH1 0x0 MSTORE PUSH1 0x20 PUSH1 0x0 KECCAK256 SWAP1 JUMPDEST DUP2 SLOAD DUP2 MSTORE SWAP1 PUSH1 0x1 ADD SWAP1 PUSH1 0x20 ADD DUP1 DUP4 GT PUSH2 0x233 JUMPI DUP3 SWAP1 SUB PUSH1 0x1F AND DUP3 ADD SWAP2 JUMPDEST POP POP POP POP POP SWAP1 DUP1 PUSH1 0x1 ADD DUP1 SLOAD PUSH2 0x265 SWAP1 PUSH2 0x1166 JUMP JUMPDEST DUP1 PUSH1 0x1F ADD PUSH1 0x20 DUP1 SWAP2 DIV MUL PUSH1 0x20 ADD PUSH1 0x40 MLOAD SWAP1 DUP2 ADD PUSH1 0x40 MSTORE DUP1 SWAP3 SWAP2 SWAP1 DUP2 DUP2 MSTORE PUSH1 0x20 ADD DUP3 DUP1 SLOAD PUSH2 0x291 SWAP1 PUSH2 0x1166 JUMP JUMPDEST DUP1 ISZERO PUSH2 0x2DE JUMPI DUP1 PUSH1 0x1F LT PUSH2 0x2B3 JUMPI PUSH2 0x100 DUP1 DUP4 SLOAD DIV MUL DUP4 MSTORE SWAP2 PUSH1 0x20 ADD SWAP2 PUSH2 0x2DE JUMP JUMPDEST DUP3 ADD SWAP2 SWAP1 PUSH1 0x0 MSTORE PUSH1 0x20 PUSH1 0x0 KECCAK256 SWAP1 JUMPDEST DUP2 SLOAD DUP2 MSTORE SWAP1 PUSH1 0x1 ADD SWAP1 PUSH1 0x20 ADD DUP1 DUP4 GT PUSH2 0x2C1 JUMPI DUP3 SWAP1 SUB PUSH1 0x1F AND DUP3 ADD SWAP2 JUMPDEST POP POP POP POP POP SWAP1 DUP1 PUSH1 0x2 ADD SLOAD SWAP1 DUP1 PUSH1 0x3 ADD SLOAD SWAP1 POP DUP5 JUMP JUMPDEST PUSH1 0x0 PUSH1 0x1 DUP1 SLOAD SWAP1 POP SWAP1 POP SWAP1 JUMP JUMPDEST PUSH1 0x1 DUP2 DUP2 SLOAD DUP2 LT PUSH2 0x311 JUMPI PUSH1 0x0 DUP1 REVERT JUMPDEST SWAP1 PUSH1 0x0 MSTORE PUSH1 0x20 PUSH1 0x0 KECCAK256 ADD PUSH1 0x0 SWAP2 POP SWAP1 POP SLOAD DUP2 JUMP JUMPDEST PUSH1 0x0 DUP1 PUSH1 0x0 DUP5 DUP2 MSTORE PUSH1 0x20 ADD SWAP1 DUP2 MSTORE PUSH1 0x20 ADD PUSH1 0x0 KECCAK256 PUSH1 0x2 ADD SLOAD SUB PUSH2 0x37D JUMPI PUSH1 0x40 MLOAD PUSH32 0x8C379A000000000000000000000000000000000000000000000000000000000 DUP2 MSTORE PUSH1 0x4 ADD PUSH2 0x374 SWAP1 PUSH2 0x11E3 JUMP JUMPDEST PUSH1 0x40 MLOAD DUP1 SWAP2 SUB SWAP1 REVERT JUMPDEST DUP1 PUSH1 0x0 DUP1 DUP5 DUP2 MSTORE PUSH1 0x20 ADD SWAP1 DUP2 MSTORE PUSH1 0x20 ADD PUSH1 0x0 KECCAK256 PUSH1 0x3 ADD DUP2 SWAP1 SSTORE POP PUSH32 0x18DD84DF3F87EB5C9062CD4A3632AD4A6E2E4E61503F845CB230C823F05B23C9 DUP3 DUP3 PUSH1 0x40 MLOAD PUSH2 0x3C8 SWAP3 SWAP2 SWAP1 PUSH2 0x1203 JUMP JUMPDEST PUSH1 0x40 MLOAD DUP1 SWAP2 SUB SWAP1 LOG1 POP POP JUMP JUMPDEST DUP3 PUSH1 0x0 DUP1 DUP6 DUP2 MSTORE PUSH1 0x20 ADD SWAP1 DUP2 MSTORE PUSH1 0x20 ADD PUSH1 0x0 KECCAK256 PUSH1 0x2 ADD SLOAD SUB PUSH2 0x42B JUMPI PUSH1 0x40 MLOAD PUSH32 0x8C379A000000000000000000000000000000000000000000000000000000000 DUP2 MSTORE PUSH1 0x4 ADD PUSH2 0x422 SWAP1 PUSH2 0x129E JUMP JUMPDEST PUSH1 0x40 MLOAD DUP1 SWAP2 SUB SWAP1 REVERT JUMPDEST PUSH1 0x40 MLOAD DUP1 PUSH1 0xA0 ADD PUSH1 0x40 MSTORE DUP1 DUP7 DUP2 MSTORE PUSH1 0x20 ADD DUP6 DUP2 MSTORE PUSH1 0x20 ADD DUP5 DUP2 MSTORE PUSH1 0x20 ADD DUP4 DUP2 MSTORE PUSH1 0x20 ADD DUP3 DUP2 MSTORE POP PUSH1 0x0 DUP1 DUP6 DUP2 MSTORE PUSH1 0x20 ADD SWAP1 DUP2 MSTORE PUSH1 0x20 ADD PUSH1 0x0 KECCAK256 PUSH1 0x0 DUP3 ADD MLOAD DUP2 PUSH1 0x0 ADD SWAP1 DUP2 PUSH2 0x479 SWAP2 SWAP1 PUSH2 0x146A JUMP JUMPDEST POP PUSH1 0x20 DUP3 ADD MLOAD DUP2 PUSH1 0x1 ADD SWAP1 DUP2 PUSH2 0x48F SWAP2 SWAP1 PUSH2 0x146A JUMP JUMPDEST POP PUSH1 0x40 DUP3 ADD MLOAD DUP2 PUSH1 0x2 ADD SSTORE PUSH1 0x60 DUP3 ADD MLOAD DUP2 PUSH1 0x3 ADD SSTORE PUSH1 0x80 DUP3 ADD MLOAD DUP2 PUSH1 0x4 ADD SWAP1 DUP1 MLOAD SWAP1 PUSH1 0x20 ADD SWAP1 PUSH2 0x4C0 SWAP3 SWAP2 SWAP1 PUSH2 0x8FF JUMP JUMPDEST POP SWAP1 POP POP PUSH1 0x1 DUP4 SWAP1 DUP1 PUSH1 0x1 DUP2 SLOAD ADD DUP1 DUP3 SSTORE DUP1 SWAP2 POP POP PUSH1 0x1 SWAP1 SUB SWAP1 PUSH1 0x0 MSTORE PUSH1 0x20 PUSH1 0x0 KECCAK256 ADD PUSH1 0x0 SWAP1 SWAP2 SWAP1 SWAP2 SWAP1 SWAP2 POP SSTORE PUSH32 0x8F2389BB456B93C3E9FE508739C041611B37C490E217F5AA157162A700EC4DF7 DUP4 DUP7 DUP7 PUSH1 0x40 MLOAD PUSH2 0x520 SWAP4 SWAP3 SWAP2 SWAP1 PUSH2 0x153C JUMP JUMPDEST PUSH1 0x40 MLOAD DUP1 SWAP2 SUB SWAP1 LOG1 POP POP POP POP POP JUMP JUMPDEST PUSH1 0x60 DUP1 PUSH1 0x0 DUP1 PUSH1 0x60 PUSH1 0x0 DUP1 PUSH1 0x0 DUP9 DUP2 MSTORE PUSH1 0x20 ADD SWAP1 DUP2 MSTORE PUSH1 0x20 ADD PUSH1 0x0 KECCAK256 PUSH1 0x40 MLOAD DUP1 PUSH1 0xA0 ADD PUSH1 0x40 MSTORE SWAP1 DUP2 PUSH1 0x0 DUP3 ADD DUP1 SLOAD PUSH2 0x566 SWAP1 PUSH2 0x1166 JUMP JUMPDEST DUP1 PUSH1 0x1F ADD PUSH1 0x20 DUP1 SWAP2 DIV MUL PUSH1 0x20 ADD PUSH1 0x40 MLOAD SWAP1 DUP2 ADD PUSH1 0x40 MSTORE DUP1 SWAP3 SWAP2 SWAP1 DUP2 DUP2 MSTORE PUSH1 0x20 ADD DUP3 DUP1 SLOAD PUSH2 0x592 SWAP1 PUSH2 0x1166 JUMP JUMPDEST DUP1 ISZERO PUSH2 0x5DF JUMPI DUP1 PUSH1 0x1F LT PUSH2 0x5B4 JUMPI PUSH2 0x100 DUP1 DUP4 SLOAD DIV MUL DUP4 MSTORE SWAP2 PUSH1 0x20 ADD SWAP2 PUSH2 0x5DF JUMP JUMPDEST DUP3 ADD SWAP2 SWAP1 PUSH1 0x0 MSTORE PUSH1 0x20 PUSH1 0x0 KECCAK256 SWAP1 JUMPDEST DUP2 SLOAD DUP2 MSTORE SWAP1 PUSH1 0x1 ADD SWAP1 PUSH1 0x20 ADD DUP1 DUP4 GT PUSH2 0x5C2 JUMPI DUP3 SWAP1 SUB PUSH1 0x1F AND DUP3 ADD SWAP2 JUMPDEST POP POP POP POP POP DUP2 MSTORE PUSH1 0x20 ADD PUSH1 0x1 DUP3 ADD DUP1 SLOAD PUSH2 0x5F8 SWAP1 PUSH2 0x1166 JUMP JUMPDEST DUP1 PUSH1 0x1F ADD PUSH1 0x20 DUP1 SWAP2 DIV MUL PUSH1 0x20 ADD PUSH1 0x40 MLOAD SWAP1 DUP2 ADD PUSH1 0x40 MSTORE DUP1 SWAP3 SWAP2 SWAP1 DUP2 DUP2 MSTORE PUSH1 0x20 ADD DUP3 DUP1 SLOAD PUSH2 0x624 SWAP1 PUSH2 0x1166 JUMP JUMPDEST DUP1 ISZERO PUSH2 0x671 JUMPI DUP1 PUSH1 0x1F LT PUSH2 0x646 JUMPI PUSH2 0x100 DUP1 DUP4 SLOAD DIV MUL DUP4 MSTORE SWAP2 PUSH1 0x20 ADD SWAP2 PUSH2 0x671 JUMP JUMPDEST DUP3 ADD SWAP2 SWAP1 PUSH1 0x0 MSTORE PUSH1 0x20 PUSH1 0x0 KECCAK256 SWAP1 JUMPDEST DUP2 SLOAD DUP2 MSTORE SWAP1 PUSH1 0x1 ADD SWAP1 PUSH1 0x20 ADD DUP1 DUP4 GT PUSH2 0x654 JUMPI DUP3 SWAP1 SUB PUSH1 0x1F AND DUP3 ADD SWAP2 JUMPDEST POP POP POP POP POP DUP2 MSTORE PUSH1 0x20 ADD PUSH1 0x2 DUP3 ADD SLOAD DUP2 MSTORE PUSH1 0x20 ADD PUSH1 0x3 DUP3 ADD SLOAD DUP2 MSTORE PUSH1 0x20 ADD PUSH1 0x4 DUP3 ADD DUP1 SLOAD DUP1 PUSH1 0x20 MUL PUSH1 0x20 ADD PUSH1 0x40 MLOAD SWAP1 DUP2 ADD PUSH1 0x40 MSTORE DUP1 SWAP3 SWAP2 SWAP1 DUP2 DUP2 MSTORE PUSH1 0x20 ADD PUSH1 0x0 SWAP1 JUMPDEST DUP3 DUP3 LT ISZERO PUSH2 0x75F JUMPI DUP4 DUP3 SWAP1 PUSH1 0x0 MSTORE PUSH1 0x20 PUSH1 0x0 KECCAK256 ADD DUP1 SLOAD PUSH2 0x6D2 SWAP1 PUSH2 0x1166 JUMP JUMPDEST DUP1 PUSH1 0x1F ADD PUSH1 0x20 DUP1 SWAP2 DIV MUL PUSH1 0x20 ADD PUSH1 0x40 MLOAD SWAP1 DUP2 ADD PUSH1 0x40 MSTORE DUP1 SWAP3 SWAP2 SWAP1 DUP2 DUP2 MSTORE PUSH1 0x20 ADD DUP3 DUP1 SLOAD PUSH2 0x6FE SWAP1 PUSH2 0x1166 JUMP JUMPDEST DUP1 ISZERO PUSH2 0x74B JUMPI DUP1 PUSH1 0x1F LT PUSH2 0x720 JUMPI PUSH2 0x100 DUP1 DUP4 SLOAD DIV MUL DUP4 MSTORE SWAP2 PUSH1 0x20 ADD SWAP2 PUSH2 0x74B JUMP JUMPDEST DUP3 ADD SWAP2 SWAP1 PUSH1 0x0 MSTORE PUSH1 0x20 PUSH1 0x0 KECCAK256 SWAP1 JUMPDEST DUP2 SLOAD DUP2 MSTORE SWAP1 PUSH1 0x1 ADD SWAP1 PUSH1 0x20 ADD DUP1 DUP4 GT PUSH2 0x72E JUMPI DUP3 SWAP1 SUB PUSH1 0x1F AND DUP3 ADD SWAP2 JUMPDEST POP POP POP POP POP DUP2 MSTORE PUSH1 0x20 ADD SWAP1 PUSH1 0x1 ADD SWAP1 PUSH2 0x6B3 JUMP JUMPDEST POP POP POP POP DUP2 MSTORE POP POP SWAP1 POP DUP1 PUSH1 0x0 ADD MLOAD DUP2 PUSH1 0x20 ADD MLOAD DUP3 PUSH1 0x40 ADD MLOAD DUP4 PUSH1 0x60 ADD MLOAD DUP5 PUSH1 0x80 ADD MLOAD SWAP6 POP SWAP6 POP SWAP6 POP SWAP6 POP SWAP6 POP POP SWAP2 SWAP4 SWAP6 SWAP1 SWAP3 SWAP5 POP JUMP JUMPDEST PUSH1 0x60 PUSH1 0x1 DUP1 SLOAD DUP1 PUSH1 0x20 MUL PUSH1 0x20 ADD PUSH1 0x40 MLOAD SWAP1 DUP2 ADD PUSH1 0x40 MSTORE DUP1 SWAP3 SWAP2 SWAP1 DUP2 DUP2 MSTORE PUSH1 0x20 ADD DUP3 DUP1 SLOAD DUP1 ISZERO PUSH2 0x7E4 JUMPI PUSH1 0x20 MUL DUP3 ADD SWAP2 SWAP1 PUSH1 0x0 MSTORE PUSH1 0x20 PUSH1 0x0 KECCAK256 SWAP1 JUMPDEST DUP2 SLOAD DUP2 MSTORE PUSH1 0x20 ADD SWAP1 PUSH1 0x1 ADD SWAP1 DUP1 DUP4 GT PUSH2 0x7D0 JUMPI JUMPDEST POP POP POP POP POP SWAP1 POP SWAP1 JUMP JUMPDEST PUSH1 0x0 DUP1 PUSH1 0x0 DUP5 DUP2 MSTORE PUSH1 0x20 ADD SWAP1 DUP2 MSTORE PUSH1 0x20 ADD PUSH1 0x0 KECCAK256 PUSH1 0x2 ADD SLOAD SUB PUSH2 0x846 JUMPI PUSH1 0x40 MLOAD PUSH32 0x8C379A000000000000000000000000000000000000000000000000000000000 DUP2 MSTORE PUSH1 0x4 ADD PUSH2 0x83D SWAP1 PUSH2 0x11E3 JUMP JUMPDEST PUSH1 0x40 MLOAD DUP1 SWAP2 SUB SWAP1 REVERT JUMPDEST PUSH1 0x0 JUMPDEST DUP2 MLOAD DUP2 LT ISZERO PUSH2 0x8C1 JUMPI PUSH1 0x0 DUP1 DUP5 DUP2 MSTORE PUSH1 0x20 ADD SWAP1 DUP2 MSTORE PUSH1 0x20 ADD PUSH1 0x0 KECCAK256 PUSH1 0x4 ADD DUP3 DUP3 DUP2 MLOAD DUP2 LT PUSH2 0x87A JUMPI PUSH2 0x879 PUSH2 0x1581 JUMP JUMPDEST JUMPDEST PUSH1 0x20 MUL PUSH1 0x20 ADD ADD MLOAD SWAP1 DUP1 PUSH1 0x1 DUP2 SLOAD ADD DUP1 DUP3 SSTORE DUP1 SWAP2 POP POP PUSH1 0x1 SWAP1 SUB SWAP1 PUSH1 0x0 MSTORE PUSH1 0x20 PUSH1 0x0 KECCAK256 ADD PUSH1 0x0 SWAP1 SWAP2 SWAP1 SWAP2 SWAP1 SWAP2 POP SWAP1 DUP2 PUSH2 0x8B3 SWAP2 SWAP1 PUSH2 0x146A JUMP JUMPDEST POP DUP1 DUP1 PUSH1 0x1 ADD SWAP2 POP POP PUSH2 0x849 JUMP JUMPDEST POP PUSH32 0x8F016764A5C8A6FCB34EAC2082095D30E83EB5E2039CE5B1A6041AE78F0391DA DUP3 DUP3 PUSH1 0x40 MLOAD PUSH2 0x8F3 SWAP3 SWAP2 SWAP1 PUSH2 0x15B0 JUMP JUMPDEST PUSH1 0x40 MLOAD DUP1 SWAP2 SUB SWAP1 LOG1 POP POP JUMP JUMPDEST DUP3 DUP1 SLOAD DUP3 DUP3 SSTORE SWAP1 PUSH1 0x0 MSTORE PUSH1 0x20 PUSH1 0x0 KECCAK256 SWAP1 DUP2 ADD SWAP3 DUP3 ISZERO PUSH2 0x947 JUMPI SWAP2 PUSH1 0x20 MUL DUP3 ADD JUMPDEST DUP3 DUP2 GT ISZERO PUSH2 0x946 JUMPI DUP3 MLOAD DUP3 SWAP1 DUP2 PUSH2 0x936 SWAP2 SWAP1 PUSH2 0x146A JUMP JUMPDEST POP SWAP2 PUSH1 0x20 ADD SWAP2 SWAP1 PUSH1 0x1 ADD SWAP1 PUSH2 0x91F JUMP JUMPDEST JUMPDEST POP SWAP1 POP PUSH2 0x954 SWAP2 SWAP1 PUSH2 0x958 JUMP JUMPDEST POP SWAP1 JUMP JUMPDEST JUMPDEST DUP1 DUP3 GT ISZERO PUSH2 0x978 JUMPI PUSH1 0x0 DUP2 DUP2 PUSH2 0x96F SWAP2 SWAP1 PUSH2 0x97C JUMP JUMPDEST POP PUSH1 0x1 ADD PUSH2 0x959 JUMP JUMPDEST POP SWAP1 JUMP JUMPDEST POP DUP1 SLOAD PUSH2 0x988 SWAP1 PUSH2 0x1166 JUMP JUMPDEST PUSH1 0x0 DUP3 SSTORE DUP1 PUSH1 0x1F LT PUSH2 0x99A JUMPI POP PUSH2 0x9B9 JUMP JUMPDEST PUSH1 0x1F ADD PUSH1 0x20 SWAP1 DIV SWAP1 PUSH1 0x0 MSTORE PUSH1 0x20 PUSH1 0x0 KECCAK256 SWAP1 DUP2 ADD SWAP1 PUSH2 0x9B8 SWAP2 SWAP1 PUSH2 0x9BC JUMP JUMPDEST JUMPDEST POP JUMP JUMPDEST JUMPDEST DUP1 DUP3 GT ISZERO PUSH2 0x9D5 JUMPI PUSH1 0x0 DUP2 PUSH1 0x0 SWAP1 SSTORE POP PUSH1 0x1 ADD PUSH2 0x9BD JUMP JUMPDEST POP SWAP1 JUMP JUMPDEST PUSH1 0x0 PUSH1 0x40 MLOAD SWAP1 POP SWAP1 JUMP JUMPDEST PUSH1 0x0 DUP1 REVERT JUMPDEST PUSH1 0x0 DUP1 REVERT JUMPDEST PUSH1 0x0 DUP2 SWAP1 POP SWAP2 SWAP1 POP JUMP JUMPDEST PUSH2 0xA00 DUP2 PUSH2 0x9ED JUMP JUMPDEST DUP2 EQ PUSH2 0xA0B JUMPI PUSH1 0x0 DUP1 REVERT JUMPDEST POP JUMP JUMPDEST PUSH1 0x0 DUP2 CALLDATALOAD SWAP1 POP PUSH2 0xA1D DUP2 PUSH2 0x9F7 JUMP JUMPDEST SWAP3 SWAP2 POP POP JUMP JUMPDEST PUSH1 0x0 PUSH1 0x20 DUP3 DUP5 SUB SLT ISZERO PUSH2 0xA39 JUMPI PUSH2 0xA38 PUSH2 0x9E3 JUMP JUMPDEST JUMPDEST PUSH1 0x0 PUSH2 0xA47 DUP5 DUP3 DUP6 ADD PUSH2 0xA0E JUMP JUMPDEST SWAP2 POP POP SWAP3 SWAP2 POP POP JUMP JUMPDEST PUSH1 0x0 DUP2 MLOAD SWAP1 POP SWAP2 SWAP1 POP JUMP JUMPDEST PUSH1 0x0 DUP3 DUP3 MSTORE PUSH1 0x20 DUP3 ADD SWAP1 POP SWAP3 SWAP2 POP POP JUMP JUMPDEST PUSH1 0x0 JUMPDEST DUP4 DUP2 LT ISZERO PUSH2 0xA8A JUMPI DUP1 DUP3 ADD MLOAD DUP2 DUP5 ADD MSTORE PUSH1 0x20 DUP2 ADD SWAP1 POP PUSH2 0xA6F JUMP JUMPDEST PUSH1 0x0 DUP5 DUP5 ADD MSTORE POP POP POP POP JUMP JUMPDEST PUSH1 0x0 PUSH1 0x1F NOT PUSH1 0x1F DUP4 ADD AND SWAP1 POP SWAP2 SWAP1 POP JUMP JUMPDEST PUSH1 0x0 PUSH2 0xAB2 DUP3 PUSH2 0xA50 JUMP JUMPDEST PUSH2 0xABC DUP2 DUP6 PUSH2 0xA5B JUMP JUMPDEST SWAP4 POP PUSH2 0xACC DUP2 DUP6 PUSH1 0x20 DUP7 ADD PUSH2 0xA6C JUMP JUMPDEST PUSH2 0xAD5 DUP2 PUSH2 0xA96 JUMP JUMPDEST DUP5 ADD SWAP2 POP POP SWAP3 SWAP2 POP POP JUMP JUMPDEST PUSH2 0xAE9 DUP2 PUSH2 0x9ED JUMP JUMPDEST DUP3 MSTORE POP POP JUMP JUMPDEST PUSH1 0x0 PUSH1 0x80 DUP3 ADD SWAP1 POP DUP2 DUP2 SUB PUSH1 0x0 DUP4 ADD MSTORE PUSH2 0xB09 DUP2 DUP8 PUSH2 0xAA7 JUMP JUMPDEST SWAP1 POP DUP2 DUP2 SUB PUSH1 0x20 DUP4 ADD MSTORE PUSH2 0xB1D DUP2 DUP7 PUSH2 0xAA7 JUMP JUMPDEST SWAP1 POP PUSH2 0xB2C PUSH1 0x40 DUP4 ADD DUP6 PUSH2 0xAE0 JUMP JUMPDEST PUSH2 0xB39 PUSH1 0x60 DUP4 ADD DUP5 PUSH2 0xAE0 JUMP JUMPDEST SWAP6 SWAP5 POP POP POP POP POP JUMP JUMPDEST PUSH1 0x0 PUSH1 0x20 DUP3 ADD SWAP1 POP PUSH2 0xB57 PUSH1 0x0 DUP4 ADD DUP5 PUSH2 0xAE0 JUMP JUMPDEST SWAP3 SWAP2 POP POP JUMP JUMPDEST PUSH1 0x0 DUP1 PUSH1 0x40 DUP4 DUP6 SUB SLT ISZERO PUSH2 0xB74 JUMPI PUSH2 0xB73 PUSH2 0x9E3 JUMP JUMPDEST JUMPDEST PUSH1 0x0 PUSH2 0xB82 DUP6 DUP3 DUP7 ADD PUSH2 0xA0E JUMP JUMPDEST SWAP3 POP POP PUSH1 0x20 PUSH2 0xB93 DUP6 DUP3 DUP7 ADD PUSH2 0xA0E JUMP JUMPDEST SWAP2 POP POP SWAP3 POP SWAP3 SWAP1 POP JUMP JUMPDEST PUSH1 0x0 DUP1 REVERT JUMPDEST PUSH1 0x0 DUP1 REVERT JUMPDEST PUSH32 0x4E487B7100000000000000000000000000000000000000000000000000000000 PUSH1 0x0 MSTORE PUSH1 0x41 PUSH1 0x4 MSTORE PUSH1 0x24 PUSH1 0x0 REVERT JUMPDEST PUSH2 0xBDF DUP3 PUSH2 0xA96 JUMP JUMPDEST DUP2 ADD DUP2 DUP2 LT PUSH8 0xFFFFFFFFFFFFFFFF DUP3 GT OR ISZERO PUSH2 0xBFE JUMPI PUSH2 0xBFD PUSH2 0xBA7 JUMP JUMPDEST JUMPDEST DUP1 PUSH1 0x40 MSTORE POP POP POP JUMP JUMPDEST PUSH1 0x0 PUSH2 0xC11 PUSH2 0x9D9 JUMP JUMPDEST SWAP1 POP PUSH2 0xC1D DUP3 DUP3 PUSH2 0xBD6 JUMP JUMPDEST SWAP2 SWAP1 POP JUMP JUMPDEST PUSH1 0x0 PUSH8 0xFFFFFFFFFFFFFFFF DUP3 GT ISZERO PUSH2 0xC3D JUMPI PUSH2 0xC3C PUSH2 0xBA7 JUMP JUMPDEST JUMPDEST PUSH2 0xC46 DUP3 PUSH2 0xA96 JUMP JUMPDEST SWAP1 POP PUSH1 0x20 DUP2 ADD SWAP1 POP SWAP2 SWAP1 POP JUMP JUMPDEST DUP3 DUP2 DUP4 CALLDATACOPY PUSH1 0x0 DUP4 DUP4 ADD MSTORE POP POP POP JUMP JUMPDEST PUSH1 0x0 PUSH2 0xC75 PUSH2 0xC70 DUP5 PUSH2 0xC22 JUMP JUMPDEST PUSH2 0xC07 JUMP JUMPDEST SWAP1 POP DUP3 DUP2 MSTORE PUSH1 0x20 DUP2 ADD DUP5 DUP5 DUP5 ADD GT ISZERO PUSH2 0xC91 JUMPI PUSH2 0xC90 PUSH2 0xBA2 JUMP JUMPDEST JUMPDEST PUSH2 0xC9C DUP5 DUP3 DUP6 PUSH2 0xC53 JUMP JUMPDEST POP SWAP4 SWAP3 POP POP POP JUMP JUMPDEST PUSH1 0x0 DUP3 PUSH1 0x1F DUP4 ADD SLT PUSH2 0xCB9 JUMPI PUSH2 0xCB8 PUSH2 0xB9D JUMP JUMPDEST JUMPDEST DUP2 CALLDATALOAD PUSH2 0xCC9 DUP5 DUP3 PUSH1 0x20 DUP7 ADD PUSH2 0xC62 JUMP JUMPDEST SWAP2 POP POP SWAP3 SWAP2 POP POP JUMP JUMPDEST PUSH1 0x0 PUSH8 0xFFFFFFFFFFFFFFFF DUP3 GT ISZERO PUSH2 0xCED JUMPI PUSH2 0xCEC PUSH2 0xBA7 JUMP JUMPDEST JUMPDEST PUSH1 0x20 DUP3 MUL SWAP1 POP PUSH1 0x20 DUP2 ADD SWAP1 POP SWAP2 SWAP1 POP JUMP JUMPDEST PUSH1 0x0 DUP1 REVERT JUMPDEST PUSH1 0x0 PUSH2 0xD16 PUSH2 0xD11 DUP5 PUSH2 0xCD2 JUMP JUMPDEST PUSH2 0xC07 JUMP JUMPDEST SWAP1 POP DUP1 DUP4 DUP3 MSTORE PUSH1 0x20 DUP3 ADD SWAP1 POP PUSH1 0x20 DUP5 MUL DUP4 ADD DUP6 DUP2 GT ISZERO PUSH2 0xD39 JUMPI PUSH2 0xD38 PUSH2 0xCFE JUMP JUMPDEST JUMPDEST DUP4 JUMPDEST DUP2 DUP2 LT ISZERO PUSH2 0xD80 JUMPI DUP1 CALLDATALOAD PUSH8 0xFFFFFFFFFFFFFFFF DUP2 GT ISZERO PUSH2 0xD5E JUMPI PUSH2 0xD5D PUSH2 0xB9D JUMP JUMPDEST JUMPDEST DUP1 DUP7 ADD PUSH2 0xD6B DUP10 DUP3 PUSH2 0xCA4 JUMP JUMPDEST DUP6 MSTORE PUSH1 0x20 DUP6 ADD SWAP5 POP POP POP PUSH1 0x20 DUP2 ADD SWAP1 POP PUSH2 0xD3B JUMP JUMPDEST POP POP POP SWAP4 SWAP3 POP POP POP JUMP JUMPDEST PUSH1 0x0 DUP3 PUSH1 0x1F DUP4 ADD SLT PUSH2 0xD9F JUMPI PUSH2 0xD9E PUSH2 0xB9D JUMP JUMPDEST JUMPDEST DUP2 CALLDATALOAD PUSH2 0xDAF DUP5 DUP3 PUSH1 0x20 DUP7 ADD PUSH2 0xD03 JUMP JUMPDEST SWAP2 POP POP SWAP3 SWAP2 POP POP JUMP JUMPDEST PUSH1 0x0 DUP1 PUSH1 0x0 DUP1 PUSH1 0x0 PUSH1 0xA0 DUP7 DUP9 SUB SLT ISZERO PUSH2 0xDD4 JUMPI PUSH2 0xDD3 PUSH2 0x9E3 JUMP JUMPDEST JUMPDEST PUSH1 0x0 DUP7 ADD CALLDATALOAD PUSH8 0xFFFFFFFFFFFFFFFF DUP2 GT ISZERO PUSH2 0xDF2 JUMPI PUSH2 0xDF1 PUSH2 0x9E8 JUMP JUMPDEST JUMPDEST PUSH2 0xDFE DUP9 DUP3 DUP10 ADD PUSH2 0xCA4 JUMP JUMPDEST SWAP6 POP POP PUSH1 0x20 DUP7 ADD CALLDATALOAD PUSH8 0xFFFFFFFFFFFFFFFF DUP2 GT ISZERO PUSH2 0xE1F JUMPI PUSH2 0xE1E PUSH2 0x9E8 JUMP JUMPDEST JUMPDEST PUSH2 0xE2B DUP9 DUP3 DUP10 ADD PUSH2 0xCA4 JUMP JUMPDEST SWAP5 POP POP PUSH1 0x40 PUSH2 0xE3C DUP9 DUP3 DUP10 ADD PUSH2 0xA0E JUMP JUMPDEST SWAP4 POP POP PUSH1 0x60 PUSH2 0xE4D DUP9 DUP3 DUP10 ADD PUSH2 0xA0E JUMP JUMPDEST SWAP3 POP POP PUSH1 0x80 DUP7 ADD CALLDATALOAD PUSH8 0xFFFFFFFFFFFFFFFF DUP2 GT ISZERO PUSH2 0xE6E JUMPI PUSH2 0xE6D PUSH2 0x9E8 JUMP JUMPDEST JUMPDEST PUSH2 0xE7A DUP9 DUP3 DUP10 ADD PUSH2 0xD8A JUMP JUMPDEST SWAP2 POP POP SWAP3 SWAP6 POP SWAP3 SWAP6 SWAP1 SWAP4 POP JUMP JUMPDEST PUSH1 0x0 DUP2 MLOAD SWAP1 POP SWAP2 SWAP1 POP JUMP JUMPDEST PUSH1 0x0 DUP3 DUP3 MSTORE PUSH1 0x20 DUP3 ADD SWAP1 POP SWAP3 SWAP2 POP POP JUMP JUMPDEST PUSH1 0x0 DUP2 SWAP1 POP PUSH1 0x20 DUP3 ADD SWAP1 POP SWAP2 SWAP1 POP JUMP JUMPDEST PUSH1 0x0 DUP3 DUP3 MSTORE PUSH1 0x20 DUP3 ADD SWAP1 POP SWAP3 SWAP2 POP POP JUMP JUMPDEST PUSH1 0x0 PUSH2 0xECF DUP3 PUSH2 0xA50 JUMP JUMPDEST PUSH2 0xED9 DUP2 DUP6 PUSH2 0xEB3 JUMP JUMPDEST SWAP4 POP PUSH2 0xEE9 DUP2 DUP6 PUSH1 0x20 DUP7 ADD PUSH2 0xA6C JUMP JUMPDEST PUSH2 0xEF2 DUP2 PUSH2 0xA96 JUMP JUMPDEST DUP5 ADD SWAP2 POP POP SWAP3 SWAP2 POP POP JUMP JUMPDEST PUSH1 0x0 PUSH2 0xF09 DUP4 DUP4 PUSH2 0xEC4 JUMP JUMPDEST SWAP1 POP SWAP3 SWAP2 POP POP JUMP JUMPDEST PUSH1 0x0 PUSH1 0x20 DUP3 ADD SWAP1 POP SWAP2 SWAP1 POP JUMP JUMPDEST PUSH1 0x0 PUSH2 0xF29 DUP3 PUSH2 0xE87 JUMP JUMPDEST PUSH2 0xF33 DUP2 DUP6 PUSH2 0xE92 JUMP JUMPDEST SWAP4 POP DUP4 PUSH1 0x20 DUP3 MUL DUP6 ADD PUSH2 0xF45 DUP6 PUSH2 0xEA3 JUMP JUMPDEST DUP1 PUSH1 0x0 JUMPDEST DUP6 DUP2 LT ISZERO PUSH2 0xF81 JUMPI DUP5 DUP5 SUB DUP10 MSTORE DUP2 MLOAD PUSH2 0xF62 DUP6 DUP3 PUSH2 0xEFD JUMP JUMPDEST SWAP5 POP PUSH2 0xF6D DUP4 PUSH2 0xF11 JUMP JUMPDEST SWAP3 POP PUSH1 0x20 DUP11 ADD SWAP10 POP POP PUSH1 0x1 DUP2 ADD SWAP1 POP PUSH2 0xF49 JUMP JUMPDEST POP DUP3 SWAP8 POP DUP8 SWAP6 POP POP POP POP POP POP SWAP3 SWAP2 POP POP JUMP JUMPDEST PUSH1 0x0 PUSH1 0xA0 DUP3 ADD SWAP1 POP DUP2 DUP2 SUB PUSH1 0x0 DUP4 ADD MSTORE PUSH2 0xFAD DUP2 DUP9 PUSH2 0xAA7 JUMP JUMPDEST SWAP1 POP DUP2 DUP2 SUB PUSH1 0x20 DUP4 ADD MSTORE PUSH2 0xFC1 DUP2 DUP8 PUSH2 0xAA7 JUMP JUMPDEST SWAP1 POP PUSH2 0xFD0 PUSH1 0x40 DUP4 ADD DUP7 PUSH2 0xAE0 JUMP JUMPDEST PUSH2 0xFDD PUSH1 0x60 DUP4 ADD DUP6 PUSH2 0xAE0 JUMP JUMPDEST DUP2 DUP2 SUB PUSH1 0x80 DUP4 ADD MSTORE PUSH2 0xFEF DUP2 DUP5 PUSH2 0xF1E JUMP JUMPDEST SWAP1 POP SWAP7 SWAP6 POP POP POP POP POP POP JUMP JUMPDEST PUSH1 0x0 DUP2 MLOAD SWAP1 POP SWAP2 SWAP1 POP JUMP JUMPDEST PUSH1 0x0 DUP3 DUP3 MSTORE PUSH1 0x20 DUP3 ADD SWAP1 POP SWAP3 SWAP2 POP POP JUMP JUMPDEST PUSH1 0x0 DUP2 SWAP1 POP PUSH1 0x20 DUP3 ADD SWAP1 POP SWAP2 SWAP1 POP JUMP JUMPDEST PUSH2 0x1030 DUP2 PUSH2 0x9ED JUMP JUMPDEST DUP3 MSTORE POP POP JUMP JUMPDEST PUSH1 0x0 PUSH2 0x1042 DUP4 DUP4 PUSH2 0x1027 JUMP JUMPDEST PUSH1 0x20 DUP4 ADD SWAP1 POP SWAP3 SWAP2 POP POP JUMP JUMPDEST PUSH1 0x0 PUSH1 0x20 DUP3 ADD SWAP1 POP SWAP2 SWAP1 POP JUMP JUMPDEST PUSH1 0x0 PUSH2 0x1066 DUP3 PUSH2 0xFFB JUMP JUMPDEST PUSH2 0x1070 DUP2 DUP6 PUSH2 0x1006 JUMP JUMPDEST SWAP4 POP PUSH2 0x107B DUP4 PUSH2 0x1017 JUMP JUMPDEST DUP1 PUSH1 0x0 JUMPDEST DUP4 DUP2 LT ISZERO PUSH2 0x10AC JUMPI DUP2 MLOAD PUSH2 0x1093 DUP9 DUP3 PUSH2 0x1036 JUMP JUMPDEST SWAP8 POP PUSH2 0x109E DUP4 PUSH2 0x104E JUMP JUMPDEST SWAP3 POP POP PUSH1 0x1 DUP2 ADD SWAP1 POP PUSH2 0x107F JUMP JUMPDEST POP DUP6 SWAP4 POP POP POP POP SWAP3 SWAP2 POP POP JUMP JUMPDEST PUSH1 0x0 PUSH1 0x20 DUP3 ADD SWAP1 POP DUP2 DUP2 SUB PUSH1 0x0 DUP4 ADD MSTORE PUSH2 0x10D3 DUP2 DUP5 PUSH2 0x105B JUMP JUMPDEST SWAP1 POP SWAP3 SWAP2 POP POP JUMP JUMPDEST PUSH1 0x0 DUP1 PUSH1 0x40 DUP4 DUP6 SUB SLT ISZERO PUSH2 0x10F2 JUMPI PUSH2 0x10F1 PUSH2 0x9E3 JUMP JUMPDEST JUMPDEST PUSH1 0x0 PUSH2 0x1100 DUP6 DUP3 DUP7 ADD PUSH2 0xA0E JUMP JUMPDEST SWAP3 POP POP PUSH1 0x20 DUP4 ADD CALLDATALOAD PUSH8 0xFFFFFFFFFFFFFFFF DUP2 GT ISZERO PUSH2 0x1121 JUMPI PUSH2 0x1120 PUSH2 0x9E8 JUMP JUMPDEST JUMPDEST PUSH2 0x112D DUP6 DUP3 DUP7 ADD PUSH2 0xD8A JUMP JUMPDEST SWAP2 POP POP SWAP3 POP SWAP3 SWAP1 POP JUMP JUMPDEST PUSH32 0x4E487B7100000000000000000000000000000000000000000000000000000000 PUSH1 0x0 MSTORE PUSH1 0x22 PUSH1 0x4 MSTORE PUSH1 0x24 PUSH1 0x0 REVERT JUMPDEST PUSH1 0x0 PUSH1 0x2 DUP3 DIV SWAP1 POP PUSH1 0x1 DUP3 AND DUP1 PUSH2 0x117E JUMPI PUSH1 0x7F DUP3 AND SWAP2 POP JUMPDEST PUSH1 0x20 DUP3 LT DUP2 SUB PUSH2 0x1191 JUMPI PUSH2 0x1190 PUSH2 0x1137 JUMP JUMPDEST JUMPDEST POP SWAP2 SWAP1 POP JUMP JUMPDEST PUSH32 0x53747564656E7420646F6573206E6F7420657869737400000000000000000000 PUSH1 0x0 DUP3 ADD MSTORE POP JUMP JUMPDEST PUSH1 0x0 PUSH2 0x11CD PUSH1 0x16 DUP4 PUSH2 0xA5B JUMP JUMPDEST SWAP2 POP PUSH2 0x11D8 DUP3 PUSH2 0x1197 JUMP JUMPDEST PUSH1 0x20 DUP3 ADD SWAP1 POP SWAP2 SWAP1 POP JUMP JUMPDEST PUSH1 0x0 PUSH1 0x20 DUP3 ADD SWAP1 POP DUP2 DUP2 SUB PUSH1 0x0 DUP4 ADD MSTORE PUSH2 0x11FC DUP2 PUSH2 0x11C0 JUMP JUMPDEST SWAP1 POP SWAP2 SWAP1 POP JUMP JUMPDEST PUSH1 0x0 PUSH1 0x40 DUP3 ADD SWAP1 POP PUSH2 0x1218 PUSH1 0x0 DUP4 ADD DUP6 PUSH2 0xAE0 JUMP JUMPDEST PUSH2 0x1225 PUSH1 0x20 DUP4 ADD DUP5 PUSH2 0xAE0 JUMP JUMPDEST SWAP4 SWAP3 POP POP POP JUMP JUMPDEST PUSH32 0x53747564656E742077697468207468697320726F6C6C206E756D62657220616C PUSH1 0x0 DUP3 ADD MSTORE PUSH32 0x7265616479206578697374730000000000000000000000000000000000000000 PUSH1 0x20 DUP3 ADD MSTORE POP JUMP JUMPDEST PUSH1 0x0 PUSH2 0x1288 PUSH1 0x2C DUP4 PUSH2 0xA5B JUMP JUMPDEST SWAP2 POP PUSH2 0x1293 DUP3 PUSH2 0x122C JUMP JUMPDEST PUSH1 0x40 DUP3 ADD SWAP1 POP SWAP2 SWAP1 POP JUMP JUMPDEST PUSH1 0x0 PUSH1 0x20 DUP3 ADD SWAP1 POP DUP2 DUP2 SUB PUSH1 0x0 DUP4 ADD MSTORE PUSH2 0x12B7 DUP2 PUSH2 0x127B JUMP JUMPDEST SWAP1 POP SWAP2 SWAP1 POP JUMP JUMPDEST PUSH1 0x0 DUP2 SWAP1 POP DUP2 PUSH1 0x0 MSTORE PUSH1 0x20 PUSH1 0x0 KECCAK256 SWAP1 POP SWAP2 SWAP1 POP JUMP JUMPDEST PUSH1 0x0 PUSH1 0x20 PUSH1 0x1F DUP4 ADD DIV SWAP1 POP SWAP2 SWAP1 POP JUMP JUMPDEST PUSH1 0x0 DUP3 DUP3 SHL SWAP1 POP SWAP3 SWAP2 POP POP JUMP JUMPDEST PUSH1 0x0 PUSH1 0x8 DUP4 MUL PUSH2 0x1320 PUSH32 0xFFFFFFFFFFFFFFFFFFFFFFFFFFFFFFFFFFFFFFFFFFFFFFFFFFFFFFFFFFFFFFFF DUP3 PUSH2 0x12E3 JUMP JUMPDEST PUSH2 0x132A DUP7 DUP4 PUSH2 0x12E3 JUMP JUMPDEST SWAP6 POP DUP1 NOT DUP5 AND SWAP4 POP DUP1 DUP7 AND DUP5 OR SWAP3 POP POP POP SWAP4 SWAP3 POP POP POP JUMP JUMPDEST PUSH1 0x0 DUP2 SWAP1 POP SWAP2 SWAP1 POP JUMP JUMPDEST PUSH1 0x0 PUSH2 0x1367 PUSH2 0x1362 PUSH2 0x135D DUP5 PUSH2 0x9ED JUMP JUMPDEST PUSH2 0x1342 JUMP JUMPDEST PUSH2 0x9ED JUMP JUMPDEST SWAP1 POP SWAP2 SWAP1 POP JUMP JUMPDEST PUSH1 0x0 DUP2 SWAP1 POP SWAP2 SWAP1 POP JUMP JUMPDEST PUSH2 0x1381 DUP4 PUSH2 0x134C JUMP JUMPDEST PUSH2 0x1395 PUSH2 0x138D DUP3 PUSH2 0x136E JUMP JUMPDEST DUP5 DUP5 SLOAD PUSH2 0x12F0 JUMP JUMPDEST DUP3 SSTORE POP POP POP POP JUMP JUMPDEST PUSH1 0x0 SWAP1 JUMP JUMPDEST PUSH2 0x13AA PUSH2 0x139D JUMP JUMPDEST PUSH2 0x13B5 DUP2 DUP5 DUP5 PUSH2 0x1378 JUMP JUMPDEST POP POP POP JUMP JUMPDEST JUMPDEST DUP2 DUP2 LT ISZERO PUSH2 0x13D9 JUMPI PUSH2 0x13CE PUSH1 0x0 DUP3 PUSH2 0x13A2 JUMP JUMPDEST PUSH1 0x1 DUP2 ADD SWAP1 POP PUSH2 0x13BB JUMP JUMPDEST POP POP JUMP JUMPDEST PUSH1 0x1F DUP3 GT ISZERO PUSH2 0x141E JUMPI PUSH2 0x13EF DUP2 PUSH2 0x12BE JUMP JUMPDEST PUSH2 0x13F8 DUP5 PUSH2 0x12D3 JUMP JUMPDEST DUP2 ADD PUSH1 0x20 DUP6 LT ISZERO PUSH2 0x1407 JUMPI DUP2 SWAP1 POP JUMPDEST PUSH2 0x141B PUSH2 0x1413 DUP6 PUSH2 0x12D3 JUMP JUMPDEST DUP4 ADD DUP3 PUSH2 0x13BA JUMP JUMPDEST POP POP JUMPDEST POP POP POP JUMP JUMPDEST PUSH1 0x0 DUP3 DUP3 SHR SWAP1 POP SWAP3 SWAP2 POP POP JUMP JUMPDEST PUSH1 0x0 PUSH2 0x1441 PUSH1 0x0 NOT DUP5 PUSH1 0x8 MUL PUSH2 0x1423 JUMP JUMPDEST NOT DUP1 DUP4 AND SWAP2 POP POP SWAP3 SWAP2 POP POP JUMP JUMPDEST PUSH1 0x0 PUSH2 0x145A DUP4 DUP4 PUSH2 0x1430 JUMP JUMPDEST SWAP2 POP DUP3 PUSH1 0x2 MUL DUP3 OR SWAP1 POP SWAP3 SWAP2 POP POP JUMP JUMPDEST PUSH2 0x1473 DUP3 PUSH2 0xA50 JUMP JUMPDEST PUSH8 0xFFFFFFFFFFFFFFFF DUP2 GT ISZERO PUSH2 0x148C JUMPI PUSH2 0x148B PUSH2 0xBA7 JUMP JUMPDEST JUMPDEST PUSH2 0x1496 DUP3 SLOAD PUSH2 0x1166 JUMP JUMPDEST PUSH2 0x14A1 DUP3 DUP3 DUP6 PUSH2 0x13DD JUMP JUMPDEST PUSH1 0x0 PUSH1 0x20 SWAP1 POP PUSH1 0x1F DUP4 GT PUSH1 0x1 DUP2 EQ PUSH2 0x14D4 JUMPI PUSH1 0x0 DUP5 ISZERO PUSH2 0x14C2 JUMPI DUP3 DUP8 ADD MLOAD SWAP1 POP JUMPDEST PUSH2 0x14CC DUP6 DUP3 PUSH2 0x144E JUMP JUMPDEST DUP7 SSTORE POP PUSH2 0x1534 JUMP JUMPDEST PUSH1 0x1F NOT DUP5 AND PUSH2 0x14E2 DUP7 PUSH2 0x12BE JUMP JUMPDEST PUSH1 0x0 JUMPDEST DUP3 DUP2 LT ISZERO PUSH2 0x150A JUMPI DUP5 DUP10 ADD MLOAD DUP3 SSTORE PUSH1 0x1 DUP3 ADD SWAP2 POP PUSH1 0x20 DUP6 ADD SWAP5 POP PUSH1 0x20 DUP2 ADD SWAP1 POP PUSH2 0x14E5 JUMP JUMPDEST DUP7 DUP4 LT ISZERO PUSH2 0x1527 JUMPI DUP5 DUP10 ADD MLOAD PUSH2 0x1523 PUSH1 0x1F DUP10 AND DUP3 PUSH2 0x1430 JUMP JUMPDEST DUP4 SSTORE POP JUMPDEST PUSH1 0x1 PUSH1 0x2 DUP9 MUL ADD DUP9 SSTORE POP POP POP JUMPDEST POP POP POP POP POP POP JUMP JUMPDEST PUSH1 0x0 PUSH1 0x60 DUP3 ADD SWAP1 POP PUSH2 0x1551 PUSH1 0x0 DUP4 ADD DUP7 PUSH2 0xAE0 JUMP JUMPDEST DUP2 DUP2 SUB PUSH1 0x20 DUP4 ADD MSTORE PUSH2 0x1563 DUP2 DUP6 PUSH2 0xAA7 JUMP JUMPDEST SWAP1 POP DUP2 DUP2 SUB PUSH1 0x40 DUP4 ADD MSTORE PUSH2 0x1577 DUP2 DUP5 PUSH2 0xAA7 JUMP JUMPDEST SWAP1 POP SWAP5 SWAP4 POP POP POP POP JUMP JUMPDEST PUSH32 0x4E487B7100000000000000000000000000000000000000000000000000000000 PUSH1 0x0 MSTORE PUSH1 0x32 PUSH1 0x4 MSTORE PUSH1 0x24 PUSH1 0x0 REVERT JUMPDEST PUSH1 0x0 PUSH1 0x40 DUP3 ADD SWAP1 POP PUSH2 0x15C5 PUSH1 0x0 DUP4 ADD DUP6 PUSH2 0xAE0 JUMP JUMPDEST DUP2 DUP2 SUB PUSH1 0x20 DUP4 ADD MSTORE PUSH2 0x15D7 DUP2 DUP5 PUSH2 0xF1E JUMP JUMPDEST SWAP1 POP SWAP4 SWAP3 POP POP POP JUMP INVALID LOG2 PUSH5 0x6970667358 0x22 SLT KECCAK256 0xCA BLOBHASH 0xD4 0xF8 SWAP14 0xE0 0xCE SELFBALANCE 0xE6 0xD0 OR 0xAB 0x2B PUSH26 0x242EEC3070A02B0A822B3B5D7FA45181851064736F6C63430008 XOR STOP CALLER "
        },
        "methodIdentifiers": {
          "addStudent(string,string,uint256,uint256,string[])": "565a2d09",
          "getAllStudentRollNumbers()": "86fb41d6",
          "getStudent(uint256)": "642f9163",
          "getTotalStudents()": "28bcb51a",
          "registerCourses(uint256,string[])": "db744f2b",
          "studentRollNumbers(uint256)": "45fe55ce",
          "students(uint256)": "06ead22e",
          "updateCGPA(uint256,uint256)": "55e3ae81"
        }
      }
    }
  }
}